{
  "contractName": "FestivalTicket",
  "abi": [
    {
      "inputs": [
        {
          "internalType": "address",
          "name": "_currencyTokenAddress",
          "type": "address"
        },
        {
          "internalType": "uint256",
          "name": "_ticketPrice",
          "type": "uint256"
        }
      ],
      "stateMutability": "nonpayable",
      "type": "constructor"
    },
    {
      "anonymous": false,
      "inputs": [
        {
          "indexed": true,
          "internalType": "address",
          "name": "owner",
          "type": "address"
        },
        {
          "indexed": true,
          "internalType": "address",
          "name": "approved",
          "type": "address"
        },
        {
          "indexed": true,
          "internalType": "uint256",
          "name": "tokenId",
          "type": "uint256"
        }
      ],
      "name": "Approval",
      "type": "event"
    },
    {
      "anonymous": false,
      "inputs": [
        {
          "indexed": true,
          "internalType": "address",
          "name": "owner",
          "type": "address"
        },
        {
          "indexed": true,
          "internalType": "address",
          "name": "operator",
          "type": "address"
        },
        {
          "indexed": false,
          "internalType": "bool",
          "name": "approved",
          "type": "bool"
        }
      ],
      "name": "ApprovalForAll",
      "type": "event"
    },
    {
      "anonymous": false,
      "inputs": [
        {
          "indexed": true,
          "internalType": "address",
          "name": "previousOwner",
          "type": "address"
        },
        {
          "indexed": true,
          "internalType": "address",
          "name": "newOwner",
          "type": "address"
        }
      ],
      "name": "OwnershipTransferred",
      "type": "event"
    },
    {
      "anonymous": false,
      "inputs": [
        {
          "indexed": true,
          "internalType": "address",
          "name": "from",
          "type": "address"
        },
        {
          "indexed": true,
          "internalType": "address",
          "name": "to",
          "type": "address"
        },
        {
          "indexed": true,
          "internalType": "uint256",
          "name": "tokenId",
          "type": "uint256"
        }
      ],
      "name": "Transfer",
      "type": "event"
    },
    {
      "inputs": [
        {
          "internalType": "address",
          "name": "to",
          "type": "address"
        },
        {
          "internalType": "uint256",
          "name": "tokenId",
          "type": "uint256"
        }
      ],
      "name": "approve",
      "outputs": [],
      "stateMutability": "nonpayable",
      "type": "function"
    },
    {
      "inputs": [
        {
          "internalType": "address",
          "name": "owner",
          "type": "address"
        }
      ],
      "name": "balanceOf",
      "outputs": [
        {
          "internalType": "uint256",
          "name": "",
          "type": "uint256"
        }
      ],
      "stateMutability": "view",
      "type": "function"
    },
    {
      "inputs": [],
      "name": "currencyTokenAddress",
      "outputs": [
        {
          "internalType": "address",
          "name": "",
          "type": "address"
        }
      ],
      "stateMutability": "view",
      "type": "function"
    },
    {
      "inputs": [
        {
          "internalType": "uint256",
          "name": "tokenId",
          "type": "uint256"
        }
      ],
      "name": "getApproved",
      "outputs": [
        {
          "internalType": "address",
          "name": "",
          "type": "address"
        }
      ],
      "stateMutability": "view",
      "type": "function"
    },
    {
      "inputs": [
        {
          "internalType": "address",
          "name": "owner",
          "type": "address"
        },
        {
          "internalType": "address",
          "name": "operator",
          "type": "address"
        }
      ],
      "name": "isApprovedForAll",
      "outputs": [
        {
          "internalType": "bool",
          "name": "",
          "type": "bool"
        }
      ],
      "stateMutability": "view",
      "type": "function"
    },
    {
      "inputs": [],
      "name": "maxTickets",
      "outputs": [
        {
          "internalType": "uint256",
          "name": "",
          "type": "uint256"
        }
      ],
      "stateMutability": "view",
      "type": "function"
    },
    {
      "inputs": [],
      "name": "name",
      "outputs": [
        {
          "internalType": "string",
          "name": "",
          "type": "string"
        }
      ],
      "stateMutability": "view",
      "type": "function"
    },
    {
      "inputs": [],
      "name": "organizerFeePercentage",
      "outputs": [
        {
          "internalType": "uint256",
          "name": "",
          "type": "uint256"
        }
      ],
      "stateMutability": "view",
      "type": "function"
    },
    {
      "inputs": [],
      "name": "owner",
      "outputs": [
        {
          "internalType": "address",
          "name": "",
          "type": "address"
        }
      ],
      "stateMutability": "view",
      "type": "function"
    },
    {
      "inputs": [
        {
          "internalType": "uint256",
          "name": "tokenId",
          "type": "uint256"
        }
      ],
      "name": "ownerOf",
      "outputs": [
        {
          "internalType": "address",
          "name": "",
          "type": "address"
        }
      ],
      "stateMutability": "view",
      "type": "function"
    },
    {
      "inputs": [],
      "name": "renounceOwnership",
      "outputs": [],
      "stateMutability": "nonpayable",
      "type": "function"
    },
    {
      "inputs": [
        {
          "internalType": "address",
          "name": "from",
          "type": "address"
        },
        {
          "internalType": "address",
          "name": "to",
          "type": "address"
        },
        {
          "internalType": "uint256",
          "name": "tokenId",
          "type": "uint256"
        }
      ],
      "name": "safeTransferFrom",
      "outputs": [],
      "stateMutability": "nonpayable",
      "type": "function"
    },
    {
      "inputs": [
        {
          "internalType": "address",
          "name": "from",
          "type": "address"
        },
        {
          "internalType": "address",
          "name": "to",
          "type": "address"
        },
        {
          "internalType": "uint256",
          "name": "tokenId",
          "type": "uint256"
        },
        {
          "internalType": "bytes",
          "name": "data",
          "type": "bytes"
        }
      ],
      "name": "safeTransferFrom",
      "outputs": [],
      "stateMutability": "nonpayable",
      "type": "function"
    },
    {
      "inputs": [
        {
          "internalType": "address",
          "name": "operator",
          "type": "address"
        },
        {
          "internalType": "bool",
          "name": "approved",
          "type": "bool"
        }
      ],
      "name": "setApprovalForAll",
      "outputs": [],
      "stateMutability": "nonpayable",
      "type": "function"
    },
    {
      "inputs": [
        {
          "internalType": "bytes4",
          "name": "interfaceId",
          "type": "bytes4"
        }
      ],
      "name": "supportsInterface",
      "outputs": [
        {
          "internalType": "bool",
          "name": "",
          "type": "bool"
        }
      ],
      "stateMutability": "view",
      "type": "function"
    },
    {
      "inputs": [],
      "name": "symbol",
      "outputs": [
        {
          "internalType": "string",
          "name": "",
          "type": "string"
        }
      ],
      "stateMutability": "view",
      "type": "function"
    },
    {
      "inputs": [],
      "name": "ticketPrice",
      "outputs": [
        {
          "internalType": "uint256",
          "name": "",
          "type": "uint256"
        }
      ],
      "stateMutability": "view",
      "type": "function"
    },
    {
      "inputs": [
        {
          "internalType": "uint256",
          "name": "",
          "type": "uint256"
        }
      ],
      "name": "ticketsInfo",
      "outputs": [
        {
          "internalType": "address",
          "name": "ticketOwner",
          "type": "address"
        },
        {
          "internalType": "uint256",
          "name": "ticketPrices",
          "type": "uint256"
        },
        {
          "internalType": "bool",
          "name": "IsticketForSale",
          "type": "bool"
        }
      ],
      "stateMutability": "view",
      "type": "function"
    },
    {
      "inputs": [
        {
          "internalType": "uint256",
          "name": "tokenId",
          "type": "uint256"
        }
      ],
      "name": "tokenURI",
      "outputs": [
        {
          "internalType": "string",
          "name": "",
          "type": "string"
        }
      ],
      "stateMutability": "view",
      "type": "function"
    },
    {
      "inputs": [],
      "name": "totalSoldTickets",
      "outputs": [
        {
          "internalType": "uint256",
          "name": "",
          "type": "uint256"
        }
      ],
      "stateMutability": "view",
      "type": "function"
    },
    {
      "inputs": [
        {
          "internalType": "address",
          "name": "from",
          "type": "address"
        },
        {
          "internalType": "address",
          "name": "to",
          "type": "address"
        },
        {
          "internalType": "uint256",
          "name": "tokenId",
          "type": "uint256"
        }
      ],
      "name": "transferFrom",
      "outputs": [],
      "stateMutability": "nonpayable",
      "type": "function"
    },
    {
      "inputs": [
        {
          "internalType": "address",
          "name": "newOwner",
          "type": "address"
        }
      ],
      "name": "transferOwnership",
      "outputs": [],
      "stateMutability": "nonpayable",
      "type": "function"
    },
    {
      "inputs": [
        {
          "internalType": "uint256",
          "name": "_ticketId",
          "type": "uint256"
        },
        {
          "internalType": "uint256",
          "name": "_newPrice",
          "type": "uint256"
        }
      ],
      "name": "sellTicket",
      "outputs": [],
      "stateMutability": "nonpayable",
      "type": "function"
    },
    {
      "inputs": [
        {
          "internalType": "uint256",
          "name": "_ticketId",
          "type": "uint256"
        }
      ],
      "name": "buyTicket",
      "outputs": [],
      "stateMutability": "nonpayable",
      "type": "function"
    },
    {
      "inputs": [],
      "name": "buyTicket",
      "outputs": [],
      "stateMutability": "nonpayable",
      "type": "function"
    }
  ],
  "bytecode": "0x60806040523480156200001157600080fd5b50604051620022863803806200228683398101604081905262000034916200016f565b6040518060400160405280600e81526020017f466573746976616c5469636b65740000000000000000000000000000000000008152506040518060400160405280600681526020017f5449434b455400000000000000000000000000000000000000000000000000008152508160009081620000b1919062000282565b506001620000c0828262000282565b505050620000ef620000e062000119640100000000026401000000009004565b6401000000006200011d810204565b60098054600160a060020a031916600160a060020a03939093169290921790915560075562000355565b3390565b60068054600160a060020a03838116600160a060020a0319831681179093556040519116919082907f8be0079c531659141344cd1fd0a4f28419497f9722a3daafe3b4186f6b6457e090600090a35050565b600080604083850312156200018357600080fd5b8251600160a060020a03811681146200019b57600080fd5b6020939093015192949293505050565b7f4e487b7100000000000000000000000000000000000000000000000000000000600052604160045260246000fd5b600281046001821680620001ef57607f821691505b60208210810362000229577f4e487b7100000000000000000000000000000000000000000000000000000000600052602260045260246000fd5b50919050565b601f8211156200027d576000818152602081206020601f86010481016020861015620002585750805b6020601f860104820191505b81811015620002795782815560010162000264565b5050505b505050565b815167ffffffffffffffff8111156200029f576200029f620001ab565b620002b781620002b08454620001da565b846200022f565b602080601f831160018114620002f35760008415620002d65750858301515b60028086026008870290910a600019041982161786555062000279565b600085815260208120601f198616915b82811015620003245788860151825594840194600190910190840162000303565b50858210156200034557878501516008601f88160260020a60001904191681555b5050505050600202600101905550565b611f2180620003656000396000f3fe608060405234801561001057600080fd5b50600436106101775760003560e060020a9004806370a08231116100e2578063b88d4fde1161009b578063e985e9c511610075578063e985e9c514610364578063edca914c14610377578063f2fde38b1461037f578063fcf597251461039257600080fd5b8063b88d4fde1461032b578063c87b56dd1461033e578063d3c3b3891461035157600080fd5b806370a08231146102db578063715018a6146102ee5780638da5cb5b146102f657806395d89b41146103075780639b8947031461030f578063a22cb4651461031857600080fd5b806323b872dd1161013457806323b872dd14610273578063244b1257146102865780632a6c4c141461028f57806342842e0e146102a25780636352211e146102b557806367dd74ca146102c857600080fd5b806301ffc9a71461017c57806306fdde03146101a4578063081812fc146101b9578063095ea7b3146101e45780631209b1f6146101f95780631ad3b19d14610210575b600080fd5b61018f61018a366004611999565b61039b565b60405190151581526020015b60405180910390f35b6101ac610438565b60405161019b9190611a06565b6101cc6101c7366004611a19565b6104ca565b604051600160a060020a03909116815260200161019b565b6101f76101f2366004611a4e565b6104f1565b005b61020260075481565b60405190815260200161019b565b61024c61021e366004611a19565b600b60205260009081526040902080546001820154600290920154600160a060020a03909116919060ff1683565b60408051600160a060020a039094168452602084019290925215159082015260600161019b565b6101f7610281366004611a78565b61062d565b610202600a5481565b6101f761029d366004611ab4565b610661565b6101f76102b0366004611a78565b61078d565b6101cc6102c3366004611a19565b6107a8565b6101f76102d6366004611a19565b610810565b6102026102e9366004611ad6565b610bb3565b6101f7610c50565b600654600160a060020a03166101cc565b6101ac610c64565b6102026103e881565b6101f7610326366004611aff565b610c73565b6101f7610339366004611b4f565b610c82565b6101ac61034c366004611a19565b610cbd565b6009546101cc90600160a060020a031681565b61018f610372366004611c2b565b610d31565b6101f7610d5f565b6101f761038d366004611ad6565b610fdc565b61020260085481565b6000600160e060020a031982167f80ac58cd0000000000000000000000000000000000000000000000000000000014806103fe5750600160e060020a031982167f5b5e139f00000000000000000000000000000000000000000000000000000000145b8061043257507f01ffc9a700000000000000000000000000000000000000000000000000000000600160e060020a03198316145b92915050565b60606000805461044790611c5e565b80601f016020809104026020016040519081016040528092919081815260200182805461047390611c5e565b80156104c05780601f10610495576101008083540402835291602001916104c0565b820191906000526020600020905b8154815290600101906020018083116104a357829003601f168201915b5050505050905090565b60006104d58261106f565b50600090815260046020526040902054600160a060020a031690565b60006104fc826107a8565b905080600160a060020a031683600160a060020a03160361058d5760405160e560020a62461bcd02815260206004820152602160248201527f4552433732313a20617070726f76616c20746f2063757272656e74206f776e6560448201527f720000000000000000000000000000000000000000000000000000000000000060648201526084015b60405180910390fd5b33600160a060020a03821614806105a957506105a98133610d31565b61061e5760405160e560020a62461bcd02815260206004820152603d60248201527f4552433732313a20617070726f76652063616c6c6572206973206e6f7420746f60448201527f6b656e206f776e6572206f7220617070726f76656420666f7220616c6c0000006064820152608401610584565b61062883836110d6565b505050565b6106373382611151565b6106565760405160e560020a62461bcd02815260040161058490611c9b565b6106288383836111b0565b3361066b836107a8565b600160a060020a0316146106e95760405160e560020a62461bcd028152602060048201526024808201527f596f7520617265206e6f7420746865206f776e6572206f66207468697320746960448201527f636b6574000000000000000000000000000000000000000000000000000000006064820152608401610584565b6000828152600b602052604090206001015460649061070990606e611d11565b6107139190611d28565b8111156107655760405160e560020a62461bcd02815260206004820152601260248201527f4e657720707269636520746f6f206869676800000000000000000000000000006044820152606401610584565b6000918252600b6020526040909120600180820192909255600201805460ff19169091179055565b61062883838360405180602001604052806000815250610c82565b600081815260026020526040812054600160a060020a0316806104325760405160e560020a62461bcd02815260206004820152601860248201527f4552433732313a20696e76616c696420746f6b656e20494400000000000000006044820152606401610584565b3361081a826107a8565b600160a060020a0316036108735760405160e560020a62461bcd02815260206004820152601b60248201527f596f7520616c7265616479206f776e2074686973207469636b657400000000006044820152606401610584565b6000818152600b60205260408120600101546008549091906108a39060649061089d908590611343565b9061134f565b6009546040517fdd62ed3e0000000000000000000000000000000000000000000000000000000081523360048201523060248201529192508391600160a060020a039091169063dd62ed3e90604401602060405180830381865afa15801561090f573d6000803e3d6000fd5b505050506040513d601f19601f820116820180604052508101906109339190611d4d565b116109835760405160e560020a62461bcd02815260206004820152601660248201527f496e73756666696369656e7420416c6c6f77616e6365000000000000000000006044820152606401610584565b60085415610a7457600954600160a060020a03166323b872dd336109af600654600160a060020a031690565b60405160e060020a63ffffffff8516028152600160a060020a03928316600482015291166024820152604481018490526064016020604051808303816000875af1158015610a01573d6000803e3d6000fd5b505050506040513d601f19601f82011682018060405250810190610a259190611d66565b610a745760405160e560020a62461bcd02815260206004820152601c60248201527f5472616e73666572206661696c656420746f206f7267616e697a6572000000006044820152606401610584565b600954600160a060020a03166323b872dd33610a8f866107a8565b610a99868661135b565b60405160e060020a63ffffffff8616028152600160a060020a03938416600482015292909116602483015260448201526064016020604051808303816000875af1158015610aeb573d6000803e3d6000fd5b505050506040513d601f19601f82011682018060405250810190610b0f9190611d66565b610b5e5760405160e560020a62461bcd02815260206004820152601860248201527f5472616e73666572206661696c656420746f206f776e657200000000000000006044820152606401610584565b610b71610b6a846107a8565b33856111b0565b506000918252600b6020526040909120805473ffffffffffffffffffffffffffffffffffffffff1916331781556001810191909155600201805460ff19169055565b6000600160a060020a038216610c345760405160e560020a62461bcd02815260206004820152602960248201527f4552433732313a2061646472657373207a65726f206973206e6f74206120766160448201527f6c6964206f776e657200000000000000000000000000000000000000000000006064820152608401610584565b50600160a060020a031660009081526003602052604090205490565b610c58611367565b610c6260006113c4565b565b60606001805461044790611c5e565b610c7e338383611423565b5050565b610c8c3383611151565b610cab5760405160e560020a62461bcd02815260040161058490611c9b565b610cb7848484846114f4565b50505050565b6060610cc88261106f565b6000610cdf60408051602081019091526000815290565b90506000815111610cff5760405180602001604052806000815250610d2a565b80610d098461152a565b604051602001610d1a929190611d83565b6040516020818303038152906040525b9392505050565b600160a060020a03918216600090815260056020908152604080832093909416825291909152205460ff1690565b6103e8600a5410610db55760405160e560020a62461bcd02815260206004820152601960248201527f4e6f206d6f7265207469636b65747320617661696c61626c65000000000000006044820152606401610584565b6007546009546040517fdd62ed3e000000000000000000000000000000000000000000000000000000008152336004820152306024820152600160a060020a039091169063dd62ed3e90604401602060405180830381865afa158015610e1f573d6000803e3d6000fd5b505050506040513d601f19601f82011682018060405250810190610e439190611d4d565b11610e935760405160e560020a62461bcd02815260206004820152601660248201527f496e73756666696369656e7420416c6c6f77616e6365000000000000000000006044820152606401610584565b600954600160a060020a03166323b872dd33610eb7600654600160a060020a031690565b60075460405160e060020a63ffffffff8616028152600160a060020a03938416600482015292909116602483015260448201526064016020604051808303816000875af1158015610f0c573d6000803e3d6000fd5b505050506040513d601f19601f82011682018060405250810190610f309190611d66565b610f7f5760405160e560020a62461bcd02815260206004820152600f60248201527f5472616e73666572206661696c656400000000000000000000000000000000006044820152606401610584565b6000600a546001610f909190611db2565b9050610f9c33826115ca565b6000908152600b60205260409020805473ffffffffffffffffffffffffffffffffffffffff1916331781556007546001820155600201805460ff19169055565b610fe4611367565b600160a060020a0381166110635760405160e560020a62461bcd02815260206004820152602660248201527f4f776e61626c653a206e6577206f776e657220697320746865207a65726f206160448201527f64647265737300000000000000000000000000000000000000000000000000006064820152608401610584565b61106c816113c4565b50565b600081815260026020526040902054600160a060020a031661106c5760405160e560020a62461bcd02815260206004820152601860248201527f4552433732313a20696e76616c696420746f6b656e20494400000000000000006044820152606401610584565b6000818152600460205260409020805473ffffffffffffffffffffffffffffffffffffffff1916600160a060020a0384169081179091558190611118826107a8565b600160a060020a03167f8c5be1e5ebec7d5bd14f71427d1e84f3dd0314c0f7b2291e5b200ac8c7c3b92560405160405180910390a45050565b60008061115d836107a8565b905080600160a060020a031684600160a060020a0316148061118457506111848185610d31565b806111a8575083600160a060020a031661119d846104ca565b600160a060020a0316145b949350505050565b82600160a060020a03166111c3826107a8565b600160a060020a0316146111ec5760405160e560020a62461bcd02815260040161058490611dc5565b600160a060020a03821661126a5760405160e560020a62461bcd028152602060048201526024808201527f4552433732313a207472616e7366657220746f20746865207a65726f2061646460448201527f72657373000000000000000000000000000000000000000000000000000000006064820152608401610584565b82600160a060020a031661127d826107a8565b600160a060020a0316146112a65760405160e560020a62461bcd02815260040161058490611dc5565b6000818152600460209081526040808320805473ffffffffffffffffffffffffffffffffffffffff19908116909155600160a060020a0387811680865260038552838620805460001901905590871680865283862080546001019055868652600290945282852080549092168417909155905184937fddf252ad1be2c89b69c2b068fc378daa952ba7f163c4a11628f55a4df523b3ef91a4505050565b6000610d2a8284611d11565b6000610d2a8284611d28565b6000610d2a8284611e22565b600654600160a060020a03163314610c625760405160e560020a62461bcd02815260206004820181905260248201527f4f776e61626c653a2063616c6c6572206973206e6f7420746865206f776e65726044820152606401610584565b60068054600160a060020a0383811673ffffffffffffffffffffffffffffffffffffffff19831681179093556040519116919082907f8be0079c531659141344cd1fd0a4f28419497f9722a3daafe3b4186f6b6457e090600090a35050565b81600160a060020a031683600160a060020a0316036114875760405160e560020a62461bcd02815260206004820152601960248201527f4552433732313a20617070726f766520746f2063616c6c6572000000000000006044820152606401610584565b600160a060020a03838116600081815260056020908152604080832094871680845294825291829020805460ff191686151590811790915591519182527f17307eab39ab6107e8899845ad3d59bd9653f200f220920489ca2b5937696c31910160405180910390a3505050565b6114ff8484846111b0565b61150b8484848461176b565b610cb75760405160e560020a62461bcd02815260040161058490611e35565b60606000611537836118a1565b600101905060008167ffffffffffffffff81111561155757611557611b36565b6040519080825280601f01601f191660200182016040528015611581576020820181803683370190505b5090508181016020015b600019017f3031323334353637383961626364656600000000000000000000000000000000600a86061a8153600a850494508461158b57509392505050565b600160a060020a0382166116235760405160e560020a62461bcd02815260206004820181905260248201527f4552433732313a206d696e7420746f20746865207a65726f20616464726573736044820152606401610584565b600081815260026020526040902054600160a060020a03161561168b5760405160e560020a62461bcd02815260206004820152601c60248201527f4552433732313a20746f6b656e20616c7265616479206d696e746564000000006044820152606401610584565b600081815260026020526040902054600160a060020a0316156116f35760405160e560020a62461bcd02815260206004820152601c60248201527f4552433732313a20746f6b656e20616c7265616479206d696e746564000000006044820152606401610584565b600160a060020a0382166000818152600360209081526040808320805460010190558483526002909152808220805473ffffffffffffffffffffffffffffffffffffffff19168417905551839291907fddf252ad1be2c89b69c2b068fc378daa952ba7f163c4a11628f55a4df523b3ef908290a45050565b6000600160a060020a0384163b15611896576040517f150b7a02000000000000000000000000000000000000000000000000000000008152600160a060020a0385169063150b7a02906117c8903390899088908890600401611e92565b6020604051808303816000875af1925050508015611803575060408051601f3d908101601f1916820190925261180091810190611ece565b60015b611863573d808015611831576040519150601f19603f3d011682016040523d82523d6000602084013e611836565b606091505b50805160000361185b5760405160e560020a62461bcd02815260040161058490611e35565b805181602001fd5b600160e060020a0319167f150b7a02000000000000000000000000000000000000000000000000000000001490506111a8565b506001949350505050565b6000807a184f03e93ff9f4daa797ed6e38ed64bf6a1f01000000000000000083106118ea577a184f03e93ff9f4daa797ed6e38ed64bf6a1f010000000000000000830492506040015b6d04ee2d6d415b85acef81000000008310611916576d04ee2d6d415b85acef8100000000830492506020015b662386f26fc10000831061193457662386f26fc10000830492506010015b6305f5e100831061194c576305f5e100830492506008015b612710831061196057612710830492506004015b60648310611972576064830492506002015b600a83106104325760010192915050565b600160e060020a03198116811461106c57600080fd5b6000602082840312156119ab57600080fd5b8135610d2a81611983565b60005b838110156119d15781810151838201526020016119b9565b50506000910152565b600081518084526119f28160208601602086016119b6565b601f01601f19169290920160200192915050565b602081526000610d2a60208301846119da565b600060208284031215611a2b57600080fd5b5035919050565b8035600160a060020a0381168114611a4957600080fd5b919050565b60008060408385031215611a6157600080fd5b611a6a83611a32565b946020939093013593505050565b600080600060608486031215611a8d57600080fd5b611a9684611a32565b9250611aa460208501611a32565b9150604084013590509250925092565b60008060408385031215611ac757600080fd5b50508035926020909101359150565b600060208284031215611ae857600080fd5b610d2a82611a32565b801515811461106c57600080fd5b60008060408385031215611b1257600080fd5b611b1b83611a32565b91506020830135611b2b81611af1565b809150509250929050565b60e060020a634e487b7102600052604160045260246000fd5b60008060008060808587031215611b6557600080fd5b611b6e85611a32565b9350611b7c60208601611a32565b925060408501359150606085013567ffffffffffffffff80821115611ba057600080fd5b818701915087601f830112611bb457600080fd5b813581811115611bc657611bc6611b36565b604051601f8201601f19908116603f01168101908382118183101715611bee57611bee611b36565b816040528281528a6020848701011115611c0757600080fd5b82602086016020830137600060208483010152809550505050505092959194509250565b60008060408385031215611c3e57600080fd5b611c4783611a32565b9150611c5560208401611a32565b90509250929050565b600281046001821680611c7257607f821691505b602082108103611c955760e060020a634e487b7102600052602260045260246000fd5b50919050565b6020808252602d908201527f4552433732313a2063616c6c6572206973206e6f7420746f6b656e206f776e6560408201527f72206f7220617070726f76656400000000000000000000000000000000000000606082015260800190565b60e060020a634e487b7102600052601160045260246000fd5b808202811582820484141761043257610432611cf8565b600082611d485760e060020a634e487b7102600052601260045260246000fd5b500490565b600060208284031215611d5f57600080fd5b5051919050565b600060208284031215611d7857600080fd5b8151610d2a81611af1565b60008351611d958184602088016119b6565b835190830190611da98183602088016119b6565b01949350505050565b8082018082111561043257610432611cf8565b60208082526025908201527f4552433732313a207472616e736665722066726f6d20696e636f72726563742060408201527f6f776e6572000000000000000000000000000000000000000000000000000000606082015260800190565b8181038181111561043257610432611cf8565b60208082526032908201527f4552433732313a207472616e7366657220746f206e6f6e20455243373231526560408201527f63656976657220696d706c656d656e7465720000000000000000000000000000606082015260800190565b6000600160a060020a03808716835280861660208401525083604083015260806060830152611ec460808301846119da565b9695505050505050565b600060208284031215611ee057600080fd5b8151610d2a8161198356fea26469706673582212207bf1ee6a9f4d35b3d6eb2f42e82befba431e1f730d541b2265c15f90eb0c966664736f6c63430008110033",
  "immutableReferences": {},
  "source": "// SPDX-License-Identifier: MIT\r\npragma solidity ^0.8.0;\r\n\r\nimport \"@openzeppelin/contracts/token/ERC721/ERC721.sol\";\r\nimport \"@openzeppelin/contracts/access/Ownable.sol\";\r\nimport \"@openzeppelin/contracts/utils/math/SafeMath.sol\";\r\nimport \"@openzeppelin/contracts/token/ERC20/IERC20.sol\";\r\n\r\ncontract FestivalTicket is ERC721, Ownable {\r\n    using SafeMath for uint256;\r\n\r\n    uint256 public constant maxTickets = 1000;\r\n    uint256 public ticketPrice;\r\n    uint256 public organizerFeePercentage;\r\n    address public currencyTokenAddress;\r\n    uint256 public totalSoldTickets;\r\n\r\n    struct tickets{\r\n        address ticketOwner;\r\n        uint256 ticketPrices;\r\n        bool IsticketForSale;\r\n    }\r\n\r\n    mapping(uint256 => tickets) public ticketsInfo;\r\n\r\n    constructor(address _currencyTokenAddress, uint256 _ticketPrice) ERC721(\"FestivalTicket\", \"TICKET\") {\r\n        currencyTokenAddress = _currencyTokenAddress;\r\n        ticketPrice = _ticketPrice;\r\n    }\r\n\r\n    function buyTicket() external {\r\n        require(totalSoldTickets < maxTickets, \"No more tickets available\");\r\n        require(IERC20(currencyTokenAddress).allowance(msg.sender, address(this))>ticketPrice, \"Insufficient Allowance\");\r\n        require(IERC20(currencyTokenAddress).transferFrom(msg.sender,owner(), ticketPrice), \"Transfer failed\");\r\n        uint256 tokenId = totalSoldTickets + 1;\r\n        _mint(msg.sender, tokenId);\r\n        ticketsInfo[tokenId].ticketOwner = msg.sender;\r\n        ticketsInfo[tokenId].ticketPrices = ticketPrice;\r\n        ticketsInfo[tokenId].IsticketForSale = false;\r\n    }\r\n\r\n    function sellTicket(uint256 _ticketId, uint256 _newPrice) external {\r\n        require(ownerOf(_ticketId) == msg.sender, \"You are not the owner of this ticket\");\r\n        require(_newPrice <= ticketsInfo[_ticketId].ticketPrices * 110 / 100, \"New price too high\");\r\n        ticketsInfo[_ticketId].ticketPrices = _newPrice;\r\n        ticketsInfo[_ticketId].IsticketForSale = true;\r\n    }\r\n\r\n    function buyTicket(uint256 _ticketId) external {\r\n        require(ownerOf(_ticketId) != msg.sender, \"You already own this ticket\");\r\n        \r\n        uint256 sellingPrice = ticketsInfo[_ticketId].ticketPrices;\r\n        uint256 fee = sellingPrice.mul(organizerFeePercentage).div(100);\r\n        require(IERC20(currencyTokenAddress).allowance(msg.sender, address(this))>sellingPrice, \"Insufficient Allowance\");\r\n        if(organizerFeePercentage>0){\r\n            require(IERC20(currencyTokenAddress).transferFrom(msg.sender,owner(), fee), \"Transfer failed to organizer\");\r\n        }\r\n        require(IERC20(currencyTokenAddress).transferFrom(msg.sender,ownerOf(_ticketId),sellingPrice.sub(fee)), \"Transfer failed to owner\");\r\n        // Implement monetization for the organizer - you can charge a fee here.\r\n        // For example, deduct a percentage of the sellingPrice as a fee.\r\n\r\n        \r\n        _transfer(ownerOf(_ticketId),msg.sender, _ticketId);\r\n        ticketsInfo[_ticketId].ticketOwner = msg.sender;\r\n        ticketsInfo[_ticketId].ticketPrices = sellingPrice;\r\n        ticketsInfo[_ticketId].IsticketForSale = false;\r\n    }\r\n}\r\n",
  "sourcePath": "C:\\Users\\soura\\Desktop\\Festival NFT\\contracts\\nft.sol",
  "compiler": {
    "name": "solc",
    "version": "0.8.17+commit.8df45f5f.Emscripten.clang"
  },
  "schemaVersion": "3.4.10",
  "updatedAt": "2023-09-10T17:52:18.228Z",
  "devdoc": {
    "kind": "dev",
    "methods": {
      "approve(address,uint256)": {
        "details": "See {IERC721-approve}."
      },
      "balanceOf(address)": {
        "details": "See {IERC721-balanceOf}."
      },
      "getApproved(uint256)": {
        "details": "See {IERC721-getApproved}."
      },
      "isApprovedForAll(address,address)": {
        "details": "See {IERC721-isApprovedForAll}."
      },
      "name()": {
        "details": "See {IERC721Metadata-name}."
      },
      "owner()": {
        "details": "Returns the address of the current owner."
      },
      "ownerOf(uint256)": {
        "details": "See {IERC721-ownerOf}."
      },
      "renounceOwnership()": {
        "details": "Leaves the contract without owner. It will not be possible to call `onlyOwner` functions. Can only be called by the current owner. NOTE: Renouncing ownership will leave the contract without an owner, thereby disabling any functionality that is only available to the owner."
      },
      "safeTransferFrom(address,address,uint256)": {
        "details": "See {IERC721-safeTransferFrom}."
      },
      "safeTransferFrom(address,address,uint256,bytes)": {
        "details": "See {IERC721-safeTransferFrom}."
      },
      "setApprovalForAll(address,bool)": {
        "details": "See {IERC721-setApprovalForAll}."
      },
      "supportsInterface(bytes4)": {
        "details": "See {IERC165-supportsInterface}."
      },
      "symbol()": {
        "details": "See {IERC721Metadata-symbol}."
      },
      "tokenURI(uint256)": {
        "details": "See {IERC721Metadata-tokenURI}."
      },
      "transferFrom(address,address,uint256)": {
        "details": "See {IERC721-transferFrom}."
      },
      "transferOwnership(address)": {
        "details": "Transfers ownership of the contract to a new account (`newOwner`). Can only be called by the current owner."
      }
    },
    "version": 1
  },
  "userdoc": {
    "kind": "user",
    "methods": {},
    "version": 1
  }
}